:020000040800F2
:100000003857012041030008253900080D2F00084A
:1000100001390008651C0008DF5D000800000000D1
:10002000000000000000000000000000DF3D0008AC
:100030006D29000800000000C5390008313F0008A4
:100040005B0300085B0300085B0300085B03000818
:100050005B0300085B0300085B0300085B03000808
:100060005B0300085B0300085B0300085B030008F8
:100070005B0300085B0300085B030008AD25000874
:100080005B0300085B0300085B030008000000003E
:100090000000000000000000000000005B030008FA
:1000A0005B0300085B0300085B0300085B030008B8
:1000B0005B0300085B0300085B0300085B030008A8
:1000C0005B0300085B0300085B0300085B03000898
:1000D0005B0300089D3F00085B0300080000000070
:1000E000012C00085B0300085B030008000000000F
:1000F0000000000000000000000000005B0300089A
:10010000000000005B0300085B0300085B030008BD
:1001100000000000000000000000000000000000DF
:100120005B0300085B0300085B030008D925000897
:100130005B03000800000000000000000000000059
:10014000000000000000000000000000B5390008B9
:100150005B0300085B0300085B0300085B03000807
:100160005B0300085B0300080000000000000000C3
:10017000000000000000000000000000000000007F
:10018000000000005B030008000000000000000009
:100190005B0300085B03000800F002F800F0C1F800
:1001A0000AA090E8000C82448344AAF10107DA45D2
:1001B00001D100F0B6F8AFF2090EBAE80F0013F063
:1001C000010F18BFFB1A43F001031847F4C30100E5
:1001D00014C401000A444FF0000C10F8013B13F066
:1001E000070408BF10F8014B1D1108BF10F8015B90
:1001F000641E05D010F8016B641E01F8016BF9D183
:1002000013F0080F1EBF10F8014BAD1C0C1B09D1D9
:100210006D1E58BF01F801CBFAD505E014F8016B4B
:1002200001F8016B6D1EF9D59142D6D370470000DD
:100230000023002400250026103A28BF78C1FBD8EF
:10024000520728BF30C148BF0B6070474B1C012BC1
:1002500098BF70472DE9F003911C9B08B1F804800A
:10026000B1F802900A8831F802CC804481440244FB
:100270008444D9F80070D8F800601568DCF80040B4
:10028000C9F80060C8F80070CCF800501460D9F8C4
:100290000470D8F804605568DCF80440C9F80460BC
:1002A000C8F80470CCF80450546008315B1ED5D1F6
:1002B000BDE8F00370474B1C012B98BF70472DE938
:1002C000F003911C9B08B1F80480B1F802900A88F1
:1002D00031F802CC00EB580800EB590900EB520250
:1002E00000EB5C0CD9F80070D8F800601568DCF8F9
:1002F0000040C9F80060C8F80070CCF800501460E5
:1003000008315B1EDFD1BDE8F0037047642901F0BE
:100310003781002070471FB508F09AF91FBD10B54E
:1003200010BD01F00DFA1146FFF7F5FF06F058F881
:1003300001F02BFA03B4FFF7F2FF03BC05F0EAFE6D
:100340000948804709480047FEE7FEE7FEE7FEE769
:10035000FEE7FEE7FEE7FEE7FEE7FEE704480549A5
:10036000054A064B70470000353F00089901000818
:1003700038510120385701203853012038530120CB
:100380009FED1A1AF5EE000A40EE010ABDEEE00AF2
:10039000F5EEC00A10EE100AF1EE10FA38BF401E5A
:1003A00000EE100A1349F7EE001AB8EEC00A30EE5C
:1003B000C00ADFED0F0A20EE200AFCEEC00A10EEA4
:1003C000900AC0F3080000EE900A01EB8000F8EEFE
:1003D000600A90ED011A70EE600A90ED000A71EE6D
:1003E000E01A21EE800A00EE810A704783F9223E6E
:1003F00000000044BCBD0108DFED190AB5EEC00ADB
:1004000060EE200ABDEEE01A11EE100AF1EE10FACD
:1004100038BF401E00EE100A1349F7EE001AB8EE7E
:10042000C00A30EEC00ADFED0F0A60EE200ABCEE13
:10043000E00A10EE100AC0F3080000EE100A01EB0B
:100440008000B8EE400A90ED011A70EEC00A90EDFF
:10045000000A71EEE01A21EE800A00EE810A704770
:1004600083F9223E00000044BCBD01089FED3D0A17
:100470005FEA920C57D000BFD0ED000A90ED011A50
:100480000B1D60EEA00A083041EE010AF5EEC00A2D
:10049000F1EE10FAC6BFB1EEE01A81ED001A81ED5F
:1004A000000AD0ED000A90ED011A191D60EEA00AB5
:1004B000083041EE010AF5EEC00AF1EE10FAC6BFAF
:1004C000B1EEE01A83ED001A83ED000AD0ED000AC8
:1004D00090ED011A0B1D60EEA00A083041EE010AF2
:1004E000F5EEC00AF1EE10FAC6BFB1EEE01A81EDEA
:1004F000001A81ED000A90ED001AD0ED010A191DD5
:1005000021EE011A083000EEA01AB5EEC01AF1EE85
:1005100010FAC6BFF1EEC10AC3ED000A83ED000A6E
:10052000BCF1010CA8D112F0030208BF704700BF54
:10053000D0ED000A90ED011A0B4660EEA00A091DED
:10054000083041EE010AF5EEC00AF1EE10FAC6BF1E
:10055000B1EEE01A83ED001A83ED000A521EE7D1D6
:10056000704700000000000091ED000AD1ED010A83
:10057000D0F814C030EE001A70EEA00A0088B6EE73
:10058000000A431E71EE201A71EE600A0CF1080099
:1005900001EBC30C61EE801A60EE800A0831C2EDF7
:1005A000001AC2ED010A08329CED003A91ED001AE2
:1005B000DCED010AD1ED011A73EE413AD0ED002ACB
:1005C00090ED012A30EEA14A62EEA34A31EE031A01
:1005D00062EE233A71EEE00A22EE042A31EE241A8A
:1005E00062EE842A70EEA30A083031EE021A083156
:1005F00070EEE20AACF1080C21EE001A60EE800AFF
:1006000082ED001AC2ED010A08325B1ECCD17047A0
:10061000D1ED000A91ED011AD0F814C0008870EEF7
:10062000811A70EEC10AB6EE000A431E61EE801A0E
:1006300060EE800A0CF10800C2ED001AC2ED010A5A
:1006400001EBC30C01F1080102F1080208BF704779
:10065000DCED010A9CED003A91ED002A91ED011AC2
:1006600090ED004A72EE431AD0ED013A71EE202A65
:1006700032EE032A64EE214A63EEA11A71EE600A9B
:1006800023EEA25A32EE642A64EE222A70EEA10A08
:10069000083032EE452A083170EEE20AACF1080C5F
:1006A00022EE002A60EE800A82ED002AC2ED010AE5
:1006B00008325B1ECCD170472DE9F0410446008A18
:1006C0001D004FEA500016460F4620800AD02046F3
:1006D000FFF79EFF2A4631462046BDE8F041012340
:1006E00000F0F8BB01232A46204600F0F3FB324617
:1006F00039462046BDE8F04136E700004A080023AD
:1007000002800182B2F5807F31D008DC102A4FD000
:10071000202A45D0402A3BD0802A31D008E0B2F5CB
:10072000007F1BD0B2F5806F0FD0B2F5006F03D001
:100730004FF0FF33184670474FF46E628281214AB2
:100740008260214A2149426039E04FF4E1628281AE
:100750001F4A82601F4A2049426030E04FF4E07235
:1007600082811E4A82601E4A1E49426027E04FF481
:10077000DC7282811C4A82601C4A1D4942601EE074
:10078000D02282811B4A82601B4A1C49426016E0CB
:10079000382282811A4A82601A4A1B4942600EE05E
:1007A00030228281194A8260194A1A49426006E061
:1007B00014228281184A8260184A194942604161B4
:1007C000B8E700007C200108E4C80008BC7D0108EF
:1007D0006C120108E4A80008BC5D0108EC0E0108D9
:1007E000E4980008BC4D01087C0B0108E490000867
:1007F000BC450108DC090108E48C0008BC41010883
:100800006C090108E48A0008BC3F01080C090108D2
:10081000E4890008BC3E0108E40801086489000876
:100820003C3E010870B44FF0000CB0EC010A4E1EC3
:100830006446B50831D000BFD0ED000A90ED011A32
:100840000830B4EEE00AF1EE10FA3CBFB0EE600AF8
:100850000CF10104F0EC010AB4EEC10AF1EE10FA59
:100860003CBFB0EE410A0CF10204B0EC011AB4EE48
:10087000E00AF1EE10FA3CBFB0EE600A0CF103049E
:10088000B4EEC10AF1EE10FA3CBFB0EE410A0CF131
:1008900004046D1E0CF1040CCED106F0030C5FEACB
:1008A0000C0617D0B6F1004F19D2002EC8BF002594
:1008B00010DD00BFD0ED000AF4EEC00AF1EE10FA30
:1008C00004DD4C19B0EE600AA4EB0C04001D6D1C95
:1008D000761EEFD182ED000A1C6070BC7047F0EC10
:1008E000010AB4EEE00AF1EE10FA3CBFB0EE600A85
:1008F000A1EB0C04BCF1010CF1D1EBE72DE9F041C7
:1009000006462DED028B8C460088736801EB80044F
:100910004508274601EB850004EB85025FEA950850
:100920007DD000BFD1ED003AD4ED001A91ED012A3F
:1009300094ED013A73EEA16A91ED024A91ED031A2A
:10094000D4ED022AD4ED035A90ED008A90ED017A9D
:1009500090ED020A90ED036A92ED005AD2ED014A41
:10096000D2ED027AD2ED030AC1ED006A72EE036A9B
:1009700073EEE13A74EEC71AC1ED016A74EE226AB1
:1009800074EE622A37EEC04AC1ED026A71EE256A42
:10099000C1ED036A72EE436A31EE652A38EE051A3C
:1009A00035EE483A80ED001A37EE241A80ED011A30
:1009B00030EE271A80ED021A36EE201A80ED031A67
:1009C00030EEC61A93ED000AD3ED010A63EE804AB9
:1009D00026EEA05A66EE805A63EEA03A74EE854A7F
:1009E00075EEE33AC4ED004A63EE204AC4ED013AE5
:1009F00061EE803A61EEA00A23EE000A74EEE31A7B
:100A000030EE800AC2ED001A82ED010A93ED020A6F
:100A1000D3ED030A62EE803A22EE203A00E024E0B1
:100A200062EEA01A22EE002A73EE832A10301031F3
:100A300072EE611AC4ED022A24EE202AC4ED031AD4
:100A400061EE001A61EE200A24EE000A103332EE45
:100A5000611A103430EE800A82ED021A82ED030A28
:100A60001032B8F101087FF45DAF294602236046D9
:100A7000726800F0D5FA72682946BDEC028B3846E0
:100A8000BDE8F041022300F0CBBA2DE9F34F2DED84
:100A9000048B87B00B980088470801EB870000EBB8
:100AA000870606EB8705CDE90056DDF82C80A5F119
:100AB000040C0CEB8703CDE902014FEA5709D8F883
:100AC00004800427CDE90497D1ED000A96ED000AD1
:100AD00090ED011A95ED013A70EE802A70EEC03A61
:100AE000D1ED010A96ED010A041F321F30EE802A73
:100AF00070EEC01A31EE230AD0ED000A32EE415AF0
:100B000033EEC11A30EE434A71EEE04A95ED000A29
:100B100070EEA11A35EE435A74EE805A72EEE04A36
:100B200070EEA20A71EEC01A31EE031A74EEC04ADA
:100B300030EE800A062708F1080A81ED000A90EDE0
:100B4000010AD5ED010A08F1100B30EE020A08F196
:100B5000180830EE200A81ED010A80ED004AC0ED50
:100B6000015AC6ED004A86ED015A85ED001AC5ED21
:100B7000011ADDF810900830083108350836A9F15F
:100B800002095FEA590900F0078100BFD1ED000AB0
:100B900096ED000AD0ED011AD5ED014A30EE802A1B
:100BA00030EEC05AD1ED010A96ED010A70EE802AAE
:100BB00030EEC01A31EE850AD5ED000A30EE644AF7
:100BC00090ED000A31EE403A30EE011A73EE205AF1
:100BD00032EE403A30EE020A31EE601A73EE603ABD
:100BE00030EE200A32EEE13A75EE611A81ED000A2C
:100BF00090ED010AD5ED010A33EE643A30EE220A97
:100C000071EEA41A30EE200A81ED010AD4ED002A1B
:100C1000DCED004A54ED010A1CED010A32EEA47A23
:100C200032EEE49A72EEE42A52ED018A70EE807A96
:100C300030EEC02A72EEE82AD2ED000A93ED000AE7
:100C400013ED018A30EEC05A72EE886A77EEE82A18
:100C500035EE026A32EEC85A77EE602A72EEC04A6A
:100C600070EEC02A70EE870A72EEC22A30EE800A59
:100C700038EE682A84ED000A12ED010A53ED010AEC
:100C800032EE492A30EE270A30EE200A04ED010A3E
:100C90009AED000ADAED010A64EE007A25EEA07AF8
:100CA00065EE805A24EE204A37EE877A35EEC44A44
:100CB00080ED007A80ED014A26EEA04A66EE005AE9
:100CC00066EE200A26EE800A083034EE654A0831C6
:100CD00030EE800A82ED004A083C02ED010A9BEDED
:100CE000000ADBED010ADDF814E023EE804A63EE32
:100CF000205A23EE003A63EEA03A083A34EE254A31
:100D00000BEB8E0B33EE633A86ED004A0AF1080ACC
:100D100086ED013AB1EE643A083663EE003A25EE0C
:100D2000203A25EE000A64EEA00A33EEC33A30EE14
:100D3000C00A8CED003A0CED010A98ED000AD8EDDE
:100D4000010A08EB870861EE803A21EE203A21EE95
:100D5000001A61EEA01AACF1080C33EE833A31EEC2
:100D6000611A85ED003A62EE801A85ED011A22EED5
:100D7000201A62EEA00A22EE000A083531EE611A4E
:100D800030EE800A83ED001A03ED010A083BB9F149
:100D900001097FF4FBAE00BFD1ED000A96ED000A19
:100DA00091ED011AD0ED015A30EE802A70EEC00AA2
:100DB00096ED010A95ED015A042371EE001A71EEC9
:100DC000404A35EEA00A90ED001A31EEE54A70EE89
:100DD000E50A30EE453A95ED000A34EE454A30EE2C
:100DE000855A74EEC12A72EE413A71EE240A31EE50
:100DF000021A72EE802A73EEC03A70EEC00A31EE2B
:100E0000000A81ED000A90ED010A95ED011A30EE1D
:100E1000210A30EE010A81ED010A9AED000A9AEDED
:100E2000011A63EE001A22EE812A22EE800A23EED6
:100E3000011A71EE821A30EE410AC0ED001A80EDFF
:100E4000010A9BED000A9BED011A63EE801A24EE65
:100E5000012A24EE000A23EE811A71EE821A30EE86
:100E6000410AC6ED001A86ED010A98ED010A98EDD7
:100E7000001A60EE801A25EE012A60EE810A25EE46
:100E8000000A32EE211A30EEC00A85ED001A85ED17
:100E9000010A0B984268DDE9030100F0C1F80B98E4
:100EA000042304994268029800F0BAF80B980423CE
:100EB00004994268019800F0B3F80B980499042350
:100EC0004268009807B0BDEC048B02B0BDE8F04F5B
:100ED00000F0A6B82DE9F0410488984617460D4663
:100EE0000646012A20D1281DF4B1A0F1080114F012
:100EF000010F06D091ED020AB1EE400A81ED020A1F
:100F000008315FEA540C0FD091ED020AB1EE400AAD
:100F100081ED020A91ED040AB1EE400A81ED040A66
:100F20001031BCF1010CEFD1B4F5807F1BD008DC8F
:100F3000102C13D0202C16D0402C19D0802C0DD082
:100F40001CE0B4F5007F13D0B4F5806F06D0B4F583
:100F5000006F08D0B4F5805F0AD00FE02946304614
:100F6000FFF7CCFC0AE029463046FFF78EFD05E08E
:100F7000214601232846726800F052F8B8F1000FAC
:100F800004D0B1892846B268FFF760F9012F18BF75
:100F9000BDE8F08100EE104AB7EE001A002CF8EE22
:100FA000400A81EE200A08BFBDE8F081A5F10800E3
:100FB00014F0010F0ED0D0ED020A60EE800AC0EDF1
:100FC000020AD0ED030AF1EE600A60EE800AC0ED7D
:100FD000030A0830610808BFBDE8F081D0ED020ABD
:100FE00060EE800AC0ED020AD0ED030AF1EE600A5D
:100FF00060EE800AC0ED030AD0ED040A60EE800ABC
:10100000C0ED040AD0ED050AF1EE600A60EE800A38
:10101000C0ED050A1030491EE0D1BDE8F0810000A6
:101020002DE9FF4F2DED108B82B09FEDFEFA0B46A0
:101030001C46DB084FF0000C0CEB030505EB030826
:1010400008EB030909EB030606EB030A00EBCC07E8
:1010500000EBC60697ED001AD6ED000A0AEB030B6B
:1010600000EBC50500EBCA0A31EE200A71EE601AEA
:1010700095ED002ADAED000A0BEB030E00EBC80831
:1010800032EE201A00EBCB0B32EE602AD8ED002AAC
:10109000DBED000A00EBC90900EBCE0E99ED003A3A
:1010A0009EED004A72EEA03A72EEE02A73EE040A58
:1010B00033EE443A70EE636A70EE233A31EE600A22
:1010C00071EE200A33EEA01A73EEE00A87ED001AE3
:1010D000C6ED000A97ED011AD6ED010AD5ED013AE9
:1010E00098ED014A31EE206A71EE600A9AED011A1C
:1010F00099ED015A73EE814A73EEC13A9BED011AE4
:1011000034EE017A34EE411A9EED014A75EE045A2E
:1011100035EE444A36EE475A36EE076A34EEE57A43
:1011200074EEA54A76EE245A76EE644AC7ED015A6B
:10113000C6ED014A76EE874AC8ED004A76EEC74A08
:10114000CBED004A75EE404A35EE000AC8ED014A83
:101150008BED010A32EE430A32EE032A20EE0F0A2B
:1011600062EE0F4A33EEC42AA4448C4522EE0F3AB5
:1011700033EE842A30EEC34A62EE0F3A30EE833A01
:1011800031EEC02A31EE800A71EE630A31EE231A85
:1011900072EEE41A72EEA42A70EE013A30EE410AC1
:1011A000C5ED003A8EED000A32EE200A8AED000A03
:1011B00032EE600A89ED000A33EE620A85ED010A1B
:1011C00033EE220A8EED010A34EE610A8AED010A3D
:1011D00034EE210A89ED010AFFF42EAF082B3FBF40
:1011E00002B0BDEC108B04B0BDE8F08F4FF0000CE6
:1011F000CDF804C04FF0010CCDF800C0DDF804C0FC
:10120000159DAC444FEA8C0505EB0C07CDF804C0E6
:1012100007EB0C094FEA4C0808EB0C0609EB0C0A2B
:1012200002EBCC0C02EBC80802EBC60602EBC505CC
:1012300002EBC70702EBC90902EBCA0A9CED00DA10
:101240009CED018AD8ED00CA96ED00CAD5ED00BA32
:1012500097ED00BAD9ED00AADAED008AD8ED017A4F
:1012600096ED01AA95ED017AD7ED016A99ED016A33
:10127000DAED019ADDF800C00CEB0307FD1805EB71
:10128000030A0AEB030808EB030606EB030B00EB6B
:10129000CC0900EBC808D9ED000A98ED000A00EB74
:1012A000C70700EBC606D7ED001A96ED001A70EEE0
:1012B000803A0BEB030E70EEC00A31EE810A00EBB0
:1012C000C50500EBCB0B31EEC11AD5ED001A9BED35
:1012D000002A00EBCA0A00EBCE0E31EE824A71EE14
:1012E000C21A9AED002ADEED002A32EE223A32EEE0
:1012F000622A73EEC42A73EE843A30EE435A30EE1B
:10130000030A33EE803A73EEC0DA89ED003A99EDC4
:10131000010A98ED013AD7ED013A95ED014A70EED8
:1013200003EA30EE433A96ED010A9AED01EADEED6A
:10133000014A33EE809A73EEC03A9BED010A74EED7
:10134000005A34EE404A3EEE240A7EEE644A3EEEF7
:10135000E5EA7EEEA55A79EE40EA39EE009A32EEE1
:10136000AE0A72EEEE2A75EE89EA35EEC99A7EEE85
:10137000455AC9ED01EA3EEE055A2BEEADEA67EE9D
:1013800009EA2BEE899A67EE2DDA3EEE2EEA39EE67
:101390006D9A88ED00EA67EEA5DA88ED019A2CEEE9
:1013A000809A6CEEA55A27EE800A39EE2D9A35EE1A
:1013B000C00A85ED009A66EE055A85ED010A2AEE0F
:1013C000A20A2AEE855A66EE222A30EE250A8BED15
:1013D000000A35EE620A73EEA42A8BED010A31EEA3
:1013E000420A31EE021A33EEE42A62EE8F3A20EE20
:1013F0000F0A21EE0F1A22EE0F2A70EEC02A30EEED
:10140000800A71EEC10A71EE811A33EE421A33EE90
:10141000022A34EE633A34EE234A70EE043A30EE98
:10142000444A01E0F304353F72EE834A72EEC32A68
:1014300032EE613A32EE210A71EE601A71EE200A44
:101440002DEE232A28EE031A2DEE033A68EE233AF6
:10145000A44432EE011A28EE842A8C4587ED001A46
:1014600033EE631A29EE843A87ED011A29EE801AC9
:1014700028EE800A32EE011A30EE430A26EEA42A44
:101480008EED001A8EED010A2BEE240A26EEA11A2B
:101490006BEE211A30EE010A2CEE221A86ED000ABC
:1014A00031EEC20A6AEE221A86ED010A2AEE200AFD
:1014B0006CEE200A31EE000A8AED000A30EEE10AF5
:1014C0008AED010AFFF4D8AEDDF800C00CF1010C82
:1014D000CDF800C063453FF691AEDDF854C04FF63D
:1014E000FF7404EACC0CCDF854C0072B3FF6A0AD36
:1014F00002B0BDEC108B04B0BDE8F08F7047000067
:101500000FB4044910B503AA029800F0D3F810BC38
:101510005DF814FBA00000202DE9F0410E460446C2
:10152000002020622046E168884730B3252805D096
:10153000D4E901219047206A401CF2E7E168204687
:1015400000278847050018D0A5F14100192802D8C6
:1015500020354FF400673246294620462760FEF7C3
:10156000D5FE40B1012804D0F61D26F00706083646
:10157000D8E7361DD6E72846DAE7206ABDE8F081CD
:101580002DE9F0410646002410687529314616A55C
:1015900010D0AFF30080002802DA404213A507E024
:1015A00031688A0701D512A502E0490704D511A5C3
:1015B000012401E0AFF3008000210A2206F1240794
:1015C00009E0B0FBF2FCB0FBF2F302FB1C00303090
:1015D00078541846491C0028F3D123462A46304641
:1015E000BDE8F04100F00CB8000000002D00000044
:1015F0002B000000200000007047704770477047C4
:101600002DE9F0470D4699469246044600F124081C
:101610000168880604D5E06921F01001216000E02E
:101620000120A84201DD471B00E00027A1697A19CB
:1016300002EB0900081AA0612078C00602D42046F7
:10164000AFF30080002608E0D4E901211AF8060073
:101650009047206A401C761C20624E45F4DB2078BF
:10166000C0060AD52046AFF3008006E0D4E9012188
:1016700030209047206A401C2062381EA7F10107E5
:10168000F4DC07E0D4E9012118F805009047206A4E
:10169000401C2062281EA5F10105F3DC2046AFF3B3
:1016A00000802078000602D50220BDE8F0870120E6
:1016B000FBE70000074B70B50D467B4400F029F8AE
:1016C0000446284600F038F810B14FF0FF3070BDE6
:1016D000204670BDEB4B00001FB584B000200A9C73
:1016E00006AB04AA02A90094AFF3008018B1DDE9AB
:1016F000020108B010BD0348204000F04FF8002060
:101700000146F6E70000207C01694A1C0261087866
:10171000704700B58FB0CDE9013100210591054931
:101720007944CDE9031011466846FFF7F5FE0FB086
:1017300000BD0000E5FFFFFF007B00F08000704768
:10174000754600F033F8AE4605006946534620F072
:101750000700854618B020B5FEF700FEBDE8204022
:101760004FF000064FF000074FF000084FF0000B5D
:1017700021F00701AC46ACE8C009ACE8C009ACE810
:10178000C009ACE8C0098D46704710B50446AFF3F8
:1017900000802046BDE81040FEF7CCBD10B500F03B
:1017A0000FF8BDE8104000F005B800000048704791
:1017B000D8500120002801D004F0ACBC70470000D4
:1017C00010B5022803D0410103D50DA112E000207D
:1017D00010BD010101D50FA10CE0C10001D511A17F
:1017E00008E0810001D512A104E0400001D513A159
:1017F00000E0002115A000F039F8012010BD000024
:10180000496E76616C6964204F7065726174696FAE
:101810006E000000446976696465204279205A654B
:10182000726F00004F766572666C6F770000000083
:10183000556E646572666C6F77000000496E65785E
:1018400061637420526573756C7400005349474698
:1018500050453A2041726974686D6574696320650A
:101860007863657074696F6E3A20000070B5054644
:101870000C460A2000E06D1C04F04FFC35B12878BE
:101880000028F8D102E0641C04F047FC14B1207871
:101890000028F8D1BDE870400A2004F03EBC21B118
:1018A000826842F00102826003E0826822F0010255
:1018B000826070470021084A1168084A1140D0E947
:1018C00000231A4383681A43C3681A431143044A26
:1018D000C2F804137047000004230140E030FCFF0D
:1018E000002001400146C86C80B2704702460020CB
:1018F00013680B400BB1012000E00020704700008E
:1019000030B50246002000235068104C20400D796D
:101910000C6844EA05242043506090680C4C204039
:10192000D1E903542C438D682C434D7944EA450496
:1019300020439060D06A20F470000C7D641EE4B2F5
:10194000234340EA0350D06230BD0000FFFEFFFC9D
:10195000FDF7FFC0F0B504460D4600200021092D1B
:1019600011DDE068A5F10A0606EB4607072606FA30
:1019700007F18843A5F10A0606EB460603FA06F1CD
:101980000843E0600CE0206905EB4507072606FAEE
:1019900007F1884305EB450603FA06F10843206189
:1019A000072A0FDA606B561E06EB86071F2606FA1B
:1019B00007F18843561E06EB860605FA06F1084332
:1019C000606322E00D2A0FDA206BD61F06EB860734
:1019D0001F2606FA07F18843D61F06EB860605FA8E
:1019E00006F10843206310E0E06AA2F10D0606EB61
:1019F00086071F2606FA07F18843A2F10D0606EBBB
:101A0000860605FA06F10843E062F0BD816841F000
:101A1000804181607047000070B505460C46E28841
:101A20000249284602F056FC70BD0000084F012014
:101A300070B505460C46E08870B1E2880749284633
:101A400002F01FFC012006490870E0880549086083
:101A5000A088000A0449087070BD0000084F0120EA
:101A6000280100202C0100203001002000B58DB09D
:101A70000121084601F0AAFF0121080201F0E6FF5A
:101A800002200B9003208DF8300000208DF83300E9
:101A90000BA9164801F012F90121080201F0E6FF36
:101AA00000214FF4807001F0E1FF002007900A90C0
:101AB00009904FF48030089007A8FFF7FBFE002044
:101AC000019001208DF8080000208DF80900039096
:101AD000059001208DF8180001A90548FFF710FFB7
:101AE00001210348FFF7DBFE0DB000BD00000240FE
:101AF0000020014070B505460C4616463448007873
:101B000018B133480078052804D105203049087001
:101B1000FF2070BD012E04D0022E41D0032E55D1DE
:101B20002AE02B480078012807D0294800780428AB
:101B300003D027480078022808D16108284600F021
:101B400049F80220224908700020E2E72048007886
:101B500003280FD162082946012000F0BDFF20B103
:101B600005201B490870FF20D3E7022018490870A0
:101B70000020CEE7FF20CCE715480078022801D0EE
:101B8000FF20C6E7022000F0D9FF20B10520104950
:101B90000870FF20BDE704200D4908700020B8E759
:101BA0000B480078022801D0FF20B2E762082946DE
:101BB000002000F091FF20B1052005490870FF20AA
:101BC000A7E70320024908700020A2E7FF20A0E752
:101BD000F40100202DE9F04780460E4618480478AD
:101BE000C1461848077817B1781EC7B200E06327CE
:101BF000012015490870601CC4B2632C00DD00246C
:101C0000BC4208D1601CC4B2632C00DD0024214614
:101C10000EA0FFF775FC0A480470002509E019F8CA
:101C200005000F49064A127851F822104855681CE1
:101C300085B2B5EB460FF2D301F018FBBDE8F08793
:101C4000FF010020FE010020FD01002062616420F0
:101C5000706F736974696F6E3A25640D0A00000035
:101C6000484F012000BFFEE770B506460C4604F061
:101C70008000802808D104F07F0000EB800106F589
:101C80008E7000EBC10507E004F07F0000EB8001DF
:101C900006F55D7000EBC10504F07F00287004F0CC
:101CA0008000C00968702946304603F057FD0020C7
:101CB00070BD70B506460C4604F08000802808D13F
:101CC00004F07F0000EB800106F58E7000EBC1058B
:101CD00005E004EB840106F55D7000EBC105002012
:101CE000A87004F07F002870C4F3C0106870294603
:101CF000304603F00BFD002070BD2DE9F041064693
:101D00000D4690461F4605F08000802808D105F05A
:101D10007F0000EB800106F58E7000EBC10407E048
:101D200005F07F0000EB800106F55D7000EBC1045B
:101D300005F07F00207005F08000C0096070C4F8D5
:101D40000880E770607808B12078E080022F01D128
:101D5000002020712146304603F08CFC0020BDE8B5
:101D6000F0812DE9F04105460E461746984606F0EB
:101D70007F0000EB800105F55D7000EBC104E760BA
:101D8000C4F814800020A061607006F07F0020700D
:101D9000E878012800D12761207820B9214628461B
:101DA00003F08CFB03E02146284603F038FD0020B9
:101DB000BDE8F08108B500220092009A61F30A1292
:101DC000009202691268009B1A4303691A6008BDF9
:101DD00070B506460C4604F08000802808D104F057
:101DE0007F0000EB800106F58E7000EBC10505E079
:101DF00004EB840106F55D7000EBC1050120A870BD
:101E000004F07F002870C4F3C01068702946304683
:101E100003F0D3FC002070BD2DE9F04107460D46CC
:101E20001646984605F07F0000EB800107F58E709E
:101E300000EBC1040120607005F07F002070E660B7
:101E400026610020A061C4F81480207820B92146C2
:101E5000384603F033FB03E02146384603F0DFFC4D
:101E60000020BDE8F0811CB50446204603F0F1FADD
:101E7000E068C0680090204603F094FE03280BD170
:101E80000020A0704FF40070A080009820F47050E3
:101E900000F51050009009E00120A0704020A080C3
:101EA000009820F4705000F5A05000900098E16870
:101EB000C86000200190019820F4005000F5005007
:101EC00001900198E168486101201CBDF8B5054604
:101ED000002400200090284603F0A3FE064690E070
:101EE00006F0010000287DD0E1B2284600F002FB98
:101EF0000090009800F0010030B3012000FA04F7D0
:101F00002869406BB8432969486300200090009815
:101F100020F00100401C009005F1180050F824004A
:101F200000998160E1B239480068426828469047CC
:101F3000E878012808D13CB940F21110405D04282E
:101F400002D1284603F065FB0098C0F3C00060B1E1
:101F500000200090009820F008000830009005F163
:101F6000180050F82400009981600098C0F3001018
:101F700060B100200090009820F010001030009018
:101F800005F1180050F82400009981600098C0F312
:101F9000801060B100200090009820F04000403098
:101FA000009005F1180050F8240000998160009815
:101FB000C0F3400060B100200090009820F00200C3
:101FC000801C009005F1180050F8240000998160F1
:101FD0000098C0F3C01028B12146284600F09EFAB0
:101FE000002000E00BE00090009820F0800080309E
:101FF000009005F1180050F8240000998160641CDD
:102000007608002E7FF46CAF0120F8BD0C01002093
:102010007CB50446002500200190204603F009FE0F
:1020200006466FE006F00100002869D0E9B22046BC
:1020300003F007FE0190019800F00100C8B30020F2
:102040000190019820F00100401C019004F154001F
:1020500050F8250001998160E078012817D104F13A
:10206000540050F825000069009005EB850104F547
:102070005D7000EBC10080680099C1F31201411A44
:1020800005EB850204F55D7000EBC2008161E9B2E9
:102090001E480068026820469047E078012808D171
:1020A0003DB940F21110005D052802D1204603F031
:1020B000B0FA0198C0F3400060B10020019001988F
:1020C00020F00200801C019004F1540050F825001B
:1020D000019981600198C0F3C00088B10B48006885
:1020E00081682046884700200190019820F0080070
:1020F0000830019004F1540050F8250001998160E6
:102100006D1C7608002E8DD101207CBD0C010020B5
:102110003EB50446A07A70B1D4F80C010090009846
:1021200020F002000090009820F00100009000993B
:10213000D4F80C01016000200190019820F001000A
:10214000401C0190206940680199884321694860DA
:10215000084800688169204688470020029002985C
:1021600020F0004000F1004002900298E1684861D0
:1021700001203EBD0C0100207CB5044600200190EA
:10218000019820F0100010300190E06880690199FA
:102190008843E1688861E068006A0090009800F078
:1021A0000F0000EB800104F55D7000EBC1050098A5
:1021B000C0F3434007282DD2DFE800F02C04051DB2
:1021C0001E2C1F0027E00098C0F30A1090B1009861
:1021D000C0F30A122046E96803F03DFDE868009963
:1021E000C1F30A110844E860A8690099C1F30A1113
:1021F0000844A8610FE00EE00DE0082204F2CC5183
:10220000204603F028FDA8690099C1F30A1108448B
:10221000A86100E000BF00BFE06880690199084341
:10222000E168886101207CBD38B504460848006833
:10223000C1682046884700200090009820F00800E0
:10224000083000900098E1684861012038BD000026
:102250000C0100201FB50446002000904FF4897047
:10226000005D009023480068416920468847206946
:102270008068019000200390039820F4006000F52E
:10228000006003900398E1684861A07A70B30198F8
:1022900000F0010050B340F21510005D012825D177
:1022A0009DF80000032821D100200290029820F020
:1022B0000100401C0290D4F80C0100680299084308
:1022C000D4F80C110860029820F00200801C0290E3
:1022D000D4F80C01006802990843D4F80C11086086
:1022E0000548006840F0060003490860012004B07A
:1022F00010BD00000C01002010ED00E030B587B0EB
:1023000004460020029006900590049003900190EE
:10231000029820F00100401C029020694068029958
:102320008843216948600021204603F011FC002504
:102330000BE0FF2104F1180050F82500816004F142
:10234000540050F8250081606D1C6078A842F0D8D8
:102350004FF0FF312069816106986FF30F00401C38
:102360000690069880B200F58030069006992069A4
:10237000C161059820F0080008300590059820F00C
:102380000100401C0590059820F00200801C05907B
:10239000059920694161049820F00100401C0490D7
:1023A000049820F0080008300490049820F00200FF
:1023B000801C0490049920690161206900680390E1
:1023C000039820F4FE600390039920690160204681
:1023D00003F01FF900200190019820F4805000F5CF
:1023E000805001900198E1684861044800680169E3
:1023F00020468847012007B030BD00000C010020B6
:102400002DE9F04106460F463946304603F038FCC8
:1024100001214FF4897081550021801C81550025D0
:1024200011E005EB850106F58E7000EBC10401207B
:1024300060702570E5800020E0704020A0600020E2
:10244000E06060616D1C7078A842EAD8002510E059
:1024500005EB850106F55D7000EBC104002060709E
:102460002570E580E0704020A0600020E0606061A1
:102470006D1C7078A842EBD8304602F0D9FF304688
:1024800002F006FE0021304603F062FC304602F006
:1024900092FE304603F025FBBDE8F08138B50446D6
:1024A0000020009007480068C169204688470098CE
:1024B00020F4801000F5801000900098E1684861D9
:1024C000012038BD0C01002038B5044600200090E2
:1024D00007480068016A20468847009820F40010E9
:1024E00000F5001000900098E1684861012038BDB7
:1024F0000C01002030B5024615692B6915696C6B1B
:1025000024FA01F505F0010543EAC51302F11805A7
:1025100055F82150AD6805EA030030BD2DE9F843B8
:1025200007460E4600250020009006EB860107F5C1
:102530008E7000EBC104D4E90501451AA068A842D9
:1025400000D2A568E81C4FEA900807F1180050F87F
:102550002600806900901BE0D4E90501451AA068B7
:10256000A84200D2A568E81C4FEA9008ABB2F2B2CC
:102570003846E16803F013FCE0682844E060A06995
:102580002844A06107F1180050F8260080690090E7
:10259000009880B2404506D9D4E90510884202D29D
:1025A00060690028D8D10120BDE8F88310B507493B
:1025B000074800F04FF9012806D10449044800F00B
:1025C00055F804480068804710BD000020800020B6
:1025D000706002402000002010B50949094800F051
:1025E00039F901280BD10649064800F03FF84FF0B1
:1025F000C051044800F020F801200349087010BDC4
:1026000000800018586402409A00002008B53B2062
:102610008DF8000001208DF803008DF801008DF881
:102620000200684601F080F901221021014800F003
:1026300043F908BD586402400246094B9A4201D250
:10264000084801E00648103801F000531BB1064B62
:102650000B40C36002E0044B0B40836070470000F6
:1026600010640240006002407D0F7D0F0246094B5E
:102670009A4201D2084801E00648103801F00053A0
:102680001BB1064B0B40C36002E0044B0B40836060
:102690007047000010640240006002407D0F7D0F13
:1026A00021B1026842F00102026003E0026822F0F8
:1026B0000102026070470000016821F00101016021
:1026C0000021016041608160C1600161212141619F
:1026D0004A49884204D13D21484A103A91608CE031
:1026E00046491831884205D14FF47461434A103A83
:1026F000916082E041493031884205D14FF4741134
:102700003E4A103A916078E03C494831884205D110
:102710004FF07461394A103A91606EE03749603188
:10272000884204D13649354A103AD16065E03349D0
:102730007831884204D13349304A103AD1605CE0A4
:102740002E499031884204D12F492C4A103AD16049
:1027500053E02A49A831884205D14FF03D51274A1C
:10276000103AD16049E02949884204D13D21274AE5
:10277000083A116041E025491831884205D14FF4EB
:102780007461224A083A116037E0204930318842AA
:1027900005D14FF474111D4A083A11602DE01B4910
:1027A0004831884205D14FF07461184A083A1160E7
:1027B00023E016496031884204D11149134A121F9F
:1027C00011601AE011497831884204D10D490F4A4D
:1027D000121F116011E00D499031884204D10A495D
:1027E0000A4A121F116008E00849A831884204D142
:1027F0004FF03D51054A121F1160704710600240B2
:102800003D000020400F002000003D2010640240E9
:1028100021B1026842F48022026003E0026822F4DF
:1028200080220260704722B1036843F400230360F2
:1028300003E0036823F4002303600161704701464D
:1028400000200A6802F001020AB1012000E0002025
:102850007047000070B50246002000240025124E8B
:10286000B24201D2114B01E00F4B103B104E0E4013
:1028700036B11E2606EAD124166806EA040502E0EF
:10288000566906F0800501F000560EB15C6800E064
:102890001C68084E344004EA010616B10DB101204F
:1028A00000E0002070BD00001064024000600240A3
:1028B0003C0F3C0F7D0F7D0F10B501F080034BB135
:1028C00022B1436943F08003436103E0436923F08D
:1028D0008003436180290BD02AB1036801F01E04F4
:1028E0002343036004E0036801F01E04A343036074
:1028F00010BD000010B500220268134B1A40CC68CE
:102900000B6823434C6923438C692343CC692343DD
:102910000C6A23434C6A23438C6A23434C6B234346
:102920008C6B23431A430260426922F00702D1E90B
:102930000B3423431A4342610B6943604B68836045
:102940008B68C36010BD00003F801CF00AB10161BC
:1029500000E0C16070474160704700000146002000
:10296000014A107070470000F40100207047000019
:102970002DE9F04107460D461646002400BF08E049
:10298000C021002003F00AFF1D4941F82400601C0B
:1029900084B2642CF4DB1A48D0F88C0188B919A0F1
:1029A000FEF7AEFD002407E0154850F82410002083
:1029B00003F0E2FE601C84B2642CF5DB0120BDE86C
:1029C000F081012300225902104600F0A1FA30469E
:1029D00000F0D0FA284600F0C9F8094A516810689A
:1029E000602200F019FB0B480B49086000F03EFC28
:1029F0003246294609A0FEF783FD0020DFE70000EC
:102A0000484F01204D616C6C6F63204572726F728C
:102A1000210D0A0021610008200000204556414C8C
:102A20005F415544494F5F496E69743A25642C25CE
:102A3000640D0A0070B52DED048B0446012C07D1FE
:102A40000021084603F019FA002003F027FB39E0C3
:102A50001E48007804F0FDFF41EC190B9FED1C0BA4
:102A600053EC102B05F044F841EC180B04F076FF02
:102A7000C5B21648007804F0ECFF41EC190B9FED4D
:102A8000140B53EC102B05F033F841EC180B04F049
:102A900065FFC6B22946304603F0EFF90B480078CF
:102AA00004F0D7FF41EC190B9FED090B53EC102BF1
:102AB00005F01EF841EC180B04F050FFC5B2284693
:102AC00003F0ECFA0020BDEC048B70BDFC0100208B
:102AD000295C8FC2F528E43F2DE9F04105460E46FA
:102AE000904637461DB90020114908701CE00120AE
:102AF0000F4908700F480078401C0E4908700846BE
:102B00000078632801DD00200870002408E0385DAB
:102B10000949084A127851F822100855601C84B2FD
:102B2000C02CF4D300F0A2FB0020BDE8F08100002F
:102B3000FD010020FF010020484F012010B5044690
:102B4000214603A0FEF7DCFC00200749087010BDF9
:102B50004556414C5F415544494F5F53746F703A3D
:102B600025640D0A00000000FD01002070B52DED68
:102B7000048B04461F480470007804F06AFF41EC9F
:102B8000190B9FED1D0B53EC102B04F0B1FF41EC22
:102B9000180B04F0E3FEC6B21648007804F059FFA3
:102BA00041EC190B9FED140B53EC102B04F0A0FF1C
:102BB00041EC180B04F0D2FEC5B23146284603F0B2
:102BC0005CF90C48007804F044FF41EC190B9FEDD0
:102BD0000A0B53EC102B04F08BFF41EC180B04F0A4
:102BE000BDFEC5B2284603F059FA0020BDEC048BA7
:102BF00070BD0000FC010020295C8FC2F528E43F75
:102C000010B50120044908700A2003F0E5FA4FF4DA
:102C1000806000F003F810BD240000200149086026
:102C200070470000143C0140002123498279002AAA
:102C30003AD00A46126803689A430B461A600A1D86
:102C4000126803689A430B1D1A60027911440A68DE
:102C500003681A430A60184A0832126803689A43E4
:102C6000154B08331A601A1D126803689A43124BF9
:102C70000C331A604279102A0ED11A1F12680368A9
:102C80001A430D4B08331A601A1D126803681A4361
:102C9000094B0C331A600DE00749427911440A6868
:102CA00003681A430A6005E0027911440A68036860
:102CB0009A430A6070470000003C0140F0B50A46A4
:102CC00000210023002400BF3DE0012505FA01F3A7
:102CD000156805EA03049C4234D105684F000326B9
:102CE000BE40B543056015794E00B54006683543D2
:102CF00005601579012D02D01579022D16D1856850
:102D00004F000326BE40B543856055794E00B5405F
:102D1000866835438560456801268E40B543456029
:102D2000456896798E40B6B235434560C5684F0018
:102D30000326BE40B543C560D5794E00B540C66890
:102D40003543C560491C1029BFD3F0BDF0B5002341
:102D500000244D07ED0E02FA05F3CE1000F1200518
:102D600055F826504E07F70E0F26BE40B543CF103C
:102D700000F1200646F82750CE1000F1200555F846
:102D8000265045EA0304CE1000F1200545F8264000
:102D9000F0BD41837047018370470000014800780F
:102DA00070470000F401002010B5044601231A46C4
:102DB00021460848FEF7CEFD0648FEF727FE00BF75
:102DC00002210448FEF792FD0028F9D00148FEF7E1
:102DD00089FD10BD002001402DE9FF4F83B08046E2
:102DE00089464946404600F014FD0598A0EB0805C9
:102DF0000698A0EB0906002D02DB0120029003E0FB
:102E00004FF0FF3002906D42002E02DB0120019056
:102E100003E04FF0FF30019076424FEA450A4FEA57
:102E2000460BB54219DDABEB0504002712E049461D
:102E30004046109A00F02EF8002C05DBA4EB0A04A3
:102E4000019848441FFA80F95C44029840441FFAF4
:102E500080F87F1CAF42EADD18E0AAEB06040027E9
:102E600012E049464046109A00F014F8002C05DBA9
:102E7000A4EB0B04029840441FFA80F854440198D4
:102E800048441FFA80F97F1CB742EADD07B0BDE86D
:102E9000F08F000070B5054DAC6801FB04032D6890
:102EA00025F813200125014E357370BD5008002010
:102EB000F0B50446144FBE68002021E031F81070D0
:102EC000DFF844C0DCF804C0674507D234F810705E
:102ED000DFF834C0DCF808C0674500D30FE034F8F1
:102EE000107031F810C00CFB0675074F3F6827F8CB
:102EF00015300127DFF810C08CF80C7000BF401CA3
:102F00009042DBD3F0BD00005008002000BFFEE778
:102F10002DE9FF4104460F4615461E460121880350
:102F200000F074FD0121880300F080FD00214FF4C2
:102F3000804000F07BFDADF80070ADF80240ADF8C8
:102F400004600020ADF8060002200290ADF80C509D
:102F50006946074800F0BEF801220221044800F04B
:102F600006FF0121024800F0A9F8BDE8FF8100003A
:102F70000038004070B50546002400260A20B5FB45
:102F8000F0F500BF09E004EB8400204931F810009F
:102F9000A84200D103E0601CC4B20B2CF3D300BFE5
:102FA000002000F0E7FD0B2C01D1012070BD04EBE7
:102FB0008402164B03EB4202918804EB840203EB7C
:102FC00042025088192200F0DBFD1148006840F0F1
:102FD00080600F49086000BF0D48006800F0006085
:102FE0000028F9D004EB8400084901EB4000C688B2
:102FF00004EB840001EB4000C08846EA002646F45A
:10300000007604490E800020D0E70000D088000838
:10301000003802402038004070B590B004460E469B
:1030200015460121480500F0D1FC2248FFF744FB7A
:1030300000BF2048FFF703FC0028FAD100901E488B
:1030400001900294402003900495002005904FF4D5
:103050008060069040000790800008904011099021
:1030600040020A9000200B900C900D900E90694643
:103070001048FFF73FFC002231460E48FFF7D3FB14
:1030800001210C48FFF7C4FB012210210948FFF77A
:1030900013FC0F208DF83C0000208DF83D008DF8CA
:1030A0003E0001208DF83F000FA800F03DFC10B05D
:1030B00070BD0000706002400C38004021B1828B6E
:1030C00042F48062828304E0828B4FF6FF331A4021
:1030D000828370472DE9F04F0025022300244FF032
:1030E000010900220026002794469046B0F81CA053
:1030F0004FF2400B0AEA0B0AA0F81CA04FF0020A9C
:10310000A0F820A0858BD1F808A0BAF1020F01D158
:1031100000BF82E0B1F804A0BAF1000F02D14FF075
:10312000010901E04FF00209DFF834A1DAF800A04C
:103130000AF4000ABAF1000F09D0DFF824A1DAF886
:1031400000A02AF4000ADFF818B1CBF800A0DFF8DD
:1031500010A10AF17C0ADAF800A0CAF3881CDFF893
:1031600000A10AF17C0ADAF800A0CAF30278DFF8BD
:10317000F0A0AAF1040ADAF800A00AF03F07DFF88D
:10318000E0A0AAF1040ADAF800A00AF4800ABAF56D
:10319000800F08D1DFF8CCA0BAFBF7FA0AFB0CFAD3
:1031A000BAFBF8F607E0DFF8C0A0BAFBF7FA0AFBB3
:1031B0000CFABAFBF8F6B1F806A0BAF5007F0ED10A
:1031C0004FEA162A0AEB8A0A4FEA4A0AD1F808B0EF
:1031D000BAFBFBFA0AF1050A1FFA8AF20FE04FEA7E
:1031E000491AB6FBFAFA0AEB8A0A4FEA4A0AD1F8F8
:1031F00008B0BAFBFBFA0AF1050A1FFA8AF24FF08F
:103200000A0AB2FBFAF202F00104A2EB040ACAF3C2
:103210004F034FF6FF7A0AEA0424022B01DBFF2B4F
:1032200001DD02230024B1F806A04AEA040A4AEAB2
:10323000030AA0F820A0B1F804A0B1F80CB04AEA43
:103240000B0AB1F802B04AEA0B0AB1F800B04AEA38
:103250000B0A4AF4006A4AEA05058583BDE8F08F47
:103260000838024040787D010024F40010B50121A7
:103270000148FFF715FA10BD7060024010B500213B
:103280000148FFF70DFA10BD706002401CB5012126
:10329000022000F09BFB4FF44070009001208DF85D
:1032A000040000208DF8060003208DF805000120A1
:1032B0008DF8070069460548FFF700FD0120044925
:1032C00008600449C1F8A4021CBD000000040240CB
:1032D000A08240420080404270B504461548006814
:1032E00020F44020134908600846006840F480201C
:1032F0000860002010490860002517E0E0090E4929
:10330000091D08606006040E022002F081FF012002
:103310000A49C1F8A002022002F07AFF0020064903
:103320000860022002F074FF681CC5B2082DE5DBBE
:1033300070BD000000040240A08240420080404274
:1033400010B50F48006820F440200D490860084679
:10335000006840F48020086001200A4908600A499A
:10336000C1F8A002042002F053FF002005490860C4
:10337000042002F04DFF00200349C1F8A00210BD57
:1033800000040240A48240420080404210B50F4831
:10339000006820F440200D4908600846006840F4A9
:1033A0008020086000200A4908600A49C1F8A40288
:1033B000042002F02DFF0120054908600549C1F8ED
:1033C000A402042002F024FF10BD0000000402400B
:1033D000A08240420080404210B50024134800689B
:1033E00020F4402011490860084600680860012068
:1033F0000F49086002F00CFF01200E49C1F8A0023D
:1034000002F006FF07E0601CC4B2FA2C03DDFFF7F0
:10341000BDFF012010BD0648803800680028F2D1A9
:103420000349091F086000BFF4E7000000040240E0
:10343000A48240420080404270B504460D461646C4
:103440000A48006868B9E9B222460420FFF790FAFA
:1034500020B1052006490870FF2070BD01200349F6
:1034600008600120024908700020F6E7F8010020FA
:10347000F40100200EB500F027F80121880300F0C8
:10348000E5FA0A21002000F0ABFC4FF480600090C8
:1034900000208DF804000C208DF8050001208DF827
:1034A00006006846FFF7C0FB28208DF808000020C2
:1034B0008DF8090002208DF80A0001208DF80B001C
:1034C00002A800F031FA0EBD1CB50121084600F03B
:1034D0007DFA4FF48060009000208DF804000320F6
:1034E0008DF8050001208DF8070069460148FFF7B7
:1034F000E5FB1CBD0000024010B5044624B90821BC
:103500000448FFF746FC03E008210248FFF743FCAC
:1035100010BD0000000402401CB50121022000F093
:1035200055FA1820009001208DF8040000208DF835
:10353000060003208DF8050001208DF8070069467C
:103540000348FFF7BBFB18210148FFF724FC1CBD13
:103550000004024010B5044624B910210448FFF7C6
:1035600018FC03E010210248FFF715FC10BD000015
:10357000000402401CB50121042000F027FA4FF49A
:103580000050009001208DF8040000208DF8060006
:1035900003208DF8050001208DF8070069460448D6
:1035A000FFF78CFB4FF400510148FFF7F4FB1CBD03
:1035B0000008024010B5FFF7AFFF00F0FBFA00F083
:1035C000EBF8112000F038F9782002F005FE2120F8
:1035D00000F032F9212000F02FF9B12000F02CF991
:1035E000052000F020F93A2000F01DF93A2000F003
:1035F0001AF9B22000F020F9052000F014F93A2061
:1036000000F011F93A2000F00EF9B32000F014F99F
:10361000052000F008F93A2000F005F93A2000F002
:1036200002F9052000F0FFF83A2000F0FCF83A20FB
:1036300000F0F9F8B42000F0FFF8032000F0F3F8F0
:10364000C02000F0F9F8622000F0EDF8022000F050
:10365000EAF8042000F0E7F8C12000F0EDF8C020FF
:1036600000F0E1F8C22000F0E7F80D2000F0DBF8F0
:10367000002000F0D8F8C32000F0DEF88D2000F024
:10368000D2F86A2000F0CFF8C42000F0D5F88D20E1
:1036900000F0C9F8EE2000F0C6F8C52000F0CCF824
:1036A0000E2000F0C0F8E02000F0C6F8102000F076
:1036B000BAF80E2000F0B7F8022000F0B4F80320AA
:1036C00000F0B1F80E2000F0AEF8072000F0ABF8E3
:1036D000022000F0A8F8072000F0A5F80A2000F06A
:1036E000A2F8122000F09FF8272000F09CF8372065
:1036F00000F099F8002000F096F80D2000F093F803
:103700000E2000F090F8102000F08DF8E12000F07D
:1037100093F8102000F087F80E2000F084F80320C2
:1037200000F081F8032000F07EF80F2000F07BF815
:10373000062000F078F8022000F075F8082000F06C
:1037400072F80A2000F06FF8132000F06CF82620C1
:1037500000F069F8362000F066F8002000F063F809
:103760000D2000F060F80E2000F05DF8102000F051
:103770005AF83A2000F060F8052000F054F836209E
:1037800000F05AF8A82000F04EF8292000F054F874
:10379000642002F021FD10BD10B50020FFF7DAFE15
:1037A000642002F019FD0120FFF7D4FE322002F060
:1037B00013FD10BD2DE9F04104460D4616461F4687
:1037C0002A2000F039F8002000F02DF8611CC8B262
:1037D00000F029F8002000F026F8711CC8B200F0B3
:1037E00022F82B2000F028F8002000F01CF805F14A
:1037F0001A01C8B200F017F8002000F014F807F121
:103800001A01C8B200F00FF82C2000F015F8BDE83E
:10381000F08170B504460D462B46224629462046C7
:10382000FFF7C8FF70BD10B504460120FFF764FE26
:10383000204600F0CEFA10BD10B504460020FFF778
:103840005BFE204600F0C5FA10BD00002DE9F041F6
:1038500090B004460D4617461E46DDF858801C48B9
:10386000844204D90121880500F0B0F803E0012169
:10387000480500F0ABF82046FEF71EFF00BF2046CB
:10388000FEF7DDFF0028FAD101950297039640204C
:103890000490CDF81480002006904FF480600790CB
:1038A000400008908000099000200A904FF480307A
:1038B0000B9000200C9003200D9000200E900F9094
:1038C00001A92046FFF716F810B0BDE8F08100000E
:1038D0000064024070B504460D4600212046FEF704
:1038E000DFFE00BF2046FEF7AAFF0028FAD12946D6
:1038F0002046FFF730F801212046FEF7D1FE70BDCB
:1039000000BFFEE710B504462046FFF793F820B14C
:10391000052003490870FF2010BD0020FCE70000CF
:10392000F40100207047000070B5002100230F2231
:10393000C4781CB3174C246804F4E064C4F5E06454
:10394000C4F30721C1F10404E3B20A4144789C4066
:10395000E1B28478144021430C07210E0E4C057807
:103960006155047804F01F050124AC4005786D1101
:10397000AD0005F1E025C5F8004109E0047804F048
:103980001F050124AC40054D0678761145F8264008
:1039900070BD00000CED00E000E400E080E100E01C
:1039A00002490143024A1160704700000000FA0515
:1039B0000CED00E010B5024800F0B6FE10BD0000AE
:1039C0005C020020704701460020704729B1064A7A
:1039D00012680243044B1A6004E0034A12688243EF
:1039E000014B1A60704700003038024029B1064A86
:1039F00012680243044B1A6004E0034A12688243CF
:103A0000014B1A60704700003438024029B1064A61
:103A100012680243044B1A6004E0034A12688243AE
:103A2000014B1A60704700004038024029B1064A35
:103A300012680243044B1A6004E0034A126882438E
:103A4000014B1A60704700002038024029B1064A35
:103A500012680243044B1A6004E0034A126882436E
:103A6000014B1A60704700004438024029B1064AF1
:103A700012680243044B1A6004E0034A126882434E
:103A8000014B1A607047000024380240F0B5002155
:103A900000220024022500260223324F3F6807F04F
:103AA0000C0121B1042905D0082937D105E02E4F9A
:103AB000076036E02D4F076033E02A4F3F1F3F6815
:103AC000C7F38056274F3F1F3F6807F03F036EB193
:103AD000264FB7FBF3F7DFF88CC0ACF1040CDCF831
:103AE00000C0CCF3881C07FB0CF40CE01E4FB7FBA6
:103AF000F3F7DFF870C0ACF1040CDCF800C0CCF3D5
:103B0000881C07FB0CF4174F3F1F3F68C7F30147A2
:103B10007F1C7D00B4FBF5F7076002E0124F0760E1
:103B200000BF00BF0F4F3F6807F0F0010909104FB9
:103B30007A5C0768D74047600A4F3F6807F4E05156
:103B4000890A0B4F7A5C4768D7408760054F3F680A
:103B500007F46041490B064F7A5C4768D740C7605D
:103B6000F0BD0000083802400024F40040787D01D8
:103B7000A600002001498866704700000000474207
:103B800010B5830143EA01731343014C236010BD58
:103B90008438024010B5044624B920210448FFF7B8
:103BA000F8F803E020210248FFF7F5F810BD000007
:103BB0000004024000B587B001210846FFF706FF68
:103BC00001210220FFF702FF01210803FFF73EFF5A
:103BD000052211463148FFF7B9F8052207212F4881
:103BE000FFF7B4F8A020059002208DF818000020FF
:103BF0008DF81A0003208DF8190001208DF81B00A4
:103C000005A92648FFF75AF82020059001208DF8D5
:103C1000180000208DF81A0003208DF819000120EB
:103C20008DF81B0005A91E48FFF748F820211C4805
:103C3000FFF7B1F801210803FFF718FF00214FF447
:103C40008050FFF713FF4FF44040ADF800004FF4F1
:103C50008270ADF802000020ADF804000220ADF83B
:103C600006000120ADF808004002ADF80A0030203F
:103C7000ADF80C000020ADF80E000720ADF81000E4
:103C80006946084800F087F80121064800F05AF814
:103C9000FF2000F009F807B000BD0000000002405E
:103CA000000402400030014010B5044600BF02216C
:103CB000054800F065F80028F9D02146024800F0D8
:103CC00068F8002010BD00000030014010B5044627
:103CD000074800884FF6C771084005490880084624
:103CE0000088204308800121014800F02BF810BD16
:103CF0000030014010B504460020FFF74BFF00BF25
:103D000002210A4800F03CF80028F9D02146074873
:103D100000F03FF800BF8021044800F031F801288E
:103D2000F9D00120FFF736FF10BD00000030014040
:103D300010B504462146024800F010F810BD0000FE
:103D40000030014021B1028842F04002028004E0CC
:103D500002884FF6BF731A400280704702884FF204
:103D6000FF731A40028002880A43028070471AB12A
:103D700083880B43838002E083888B438380704772
:103D80000246002013890B400BB1012000E0002007
:103D900070478181704710B50022028802F44152B9
:103DA0000B884C8823438C882343CC8823430C897D
:103DB00023434C8923438C892343CC8923431A43CF
:103DC0000280838B4FF2FF74234083830B8A03822C
:103DD00010BD10B504462046FFF78CFF10BD70479C
:103DE00030B500228B071C0F0F2303FA04F20B4B94
:103DF0008C1053F824309343084C8D1044F8253030
:103E000023468C1053F824308C07240F00FA04F456
:103E10002343024C8D1044F8253030BD0838014052
:103E20000CB50020019000903348006840F48030C9
:103E30003149086000BF3048006800F4003000904D
:103E40000198401C0190009818B90198B0F5A04F56
:103E5000F1D12948006800F4003010B10120009031
:103E600001E0002000900098012844D12248403011
:103E7000006840F080502049403108601F480068C9
:103E800040F440401D4908601B48083000681A494A
:103E9000083108600846006808600846006840F479
:103EA000805008601648091F0860081F006840F02D
:103EB0008070091F086000BF0F48006800F00070A4
:103EC0000028F9D040F202700E4908600A48083014
:103ED000006820F0030008490831086008460068BF
:103EE00040F00200086000BF03480830006800F09E
:103EF0000C000828F8D10CBD0038024000700040CA
:103F000019304004003C0240042808D14FF0E02161
:103F1000096941F004014FF0E022116107E04FF020
:103F2000E021096921F004014FF0E022116170479E
:103F30007047000010B51548006840F47000134940
:103F400008601348006840F0010011490860002033
:103F50000F49083108600E4800680E4908400C49B6
:103F600008600D48091D0860081F006820F48020C3
:103F7000091F0860002006490C310860FFF750FF58
:103F80004FF0006001498039086010BD88ED00E005
:103F900000380240FFFFF6FE1030002410B540F25A
:103FA00025511D4800F053F810B31B4800F008F9E4
:103FB000C4B21A48008800F40040C8B91748008805
:103FC00000F4804060B10A2C03D00020134908801F
:103FD00020E01248008840F400401049088019E0B1
:103FE0000D2C06D10D48008840F480400B49088014
:103FF00010E00A480088C0F30D0009490C54074836
:104000000088401C0549088008460088C72801DD53
:104010000020088010BD000000100140A400002016
:10402000F872002001F40072B2F5007F00D100BFE9
:10403000CA430280704721B1828942F400528281D2
:1040400004E082894DF6FF731A408281704770B593
:104050000246002400230025002040F66A16B142E3
:1040600000D100BFC1F3421501F01F03012606FA7B
:1040700003F3012D02D19689334006E0022D02D1CF
:10408000168A334001E0968A33400C12012606FA64
:1040900004F41688344013B10CB1012000E0002074
:1040A00070BDF0B50346002400260025002040F630
:1040B0006A17B94200D100BF1846C1F3421401F09B
:1040C0001F06012707FA06F5012C01D10C3004E088
:1040D000022C01D1103000E014301AB107682F43D0
:1040E000076002E00768AF430760F0BD2DE9FF47B6
:1040F00005460E460024A14600BFA046B08900B187
:1041000000BF2C8A24F44054F08804432C82AC89EC
:1041100041F20C608443B0883189084371890843B7
:104120000443AC81AC8A24F44074B0890443AC826B
:104130006846FFF7ABFC2048854202D01F48854205
:1041400002D1DDF80C9001E0DDF80890A88900F4B8
:10415000004040B109EBC90000EB0910316849008B
:10416000B0FBF1F707E009EBC90000EB091031687B
:104170008900B0FBF1F76420B7FBF0F004012009DF
:10418000642101FB1078A88900F4004040B132207E
:1041900000EBC800B0FBF1F000F00700044308E0BA
:1041A000322000EB08106421B0FBF1F000F00F00AA
:1041B00004432C81BDE8FF8700100140001401403A
:1041C00001468888C0F30800704770B504460D4664
:1041D000D4F8E4052946426820469047002070BD87
:1041E00070B504460D464FF48970005D022802D078
:1041F000032812D100E000BF688801280CD10021FB
:104200004FF48C700151D4F8E405294682682046A9
:104210009047204600F075F804E02946204600F05B
:1042200021F800BF00BF70BD2DE9F04106460C46E5
:10423000154600272B46224600213046FDF791FD0A
:104240003846BDE8F0812DE9F04106460C4615469A
:1042500000272B46224600213046FDF7DDFD38467B
:10426000BDE8F08170B504460D4680212046FDF77B
:10427000AFFD00212046FDF7ABFD204601F0C9F956
:1042800070BD2DE9F04104460E4615460027C4F8DE
:104290009453C4F89053032140F2111001552B465A
:1042A000324600212046FDF75CFD3846BDE8F0812E
:1042B00070B504460025052140F211100155002378
:1042C0001A4619462046FDF74CFD204601F0A1F99B
:1042D000284670BD2DE9F04104460E4615460027DC
:1042E000C4F83C51C4F83851022140F21110015574
:1042F0002B46324600212046FDF78EFD3846BDE8AC
:10430000F08170B504460025042140F211100155DA
:1043100000231A4619462046FDF77EFD204601F08F
:1043200078F9284670BD70B505460E46002E51D16D
:1043300005F58E7440F21110405D02283DD1A16850
:10434000E069884211D9A168E069401AE061E87823
:10435000012803D1D4E902100844E060A08B82B2A6
:104360002846E168FFF76FFF27E0A168206AB0FBED
:10437000F1F201FB120078B9A168206A88420BD3E0
:10438000D4E90801884207D2002211462846FFF7E7
:104390005AFF0020606210E0D5F8E405C06848B11B
:1043A0004FF48970405D032804D1D5F8E405C16855
:1043B000284688472846FFF77BFF4FF48B70405D07
:1043C000012816D1284600F06BFA00214FF48B70BB
:1043D00041550EE0D5F8E405406950B14FF48970BD
:1043E000405D032805D1D5F8E405314642692846E9
:1043F0009047002070BD70B505460E46A6BB05F57A
:104400005D7440F21110405D03283DD1A168E06960
:10441000884217D9A168E069401AE061E87801286C
:1044200003D1D4E902100844E060A368E06998422F
:1044300001D2E06900E0A06882B22846E168FFF797
:10444000F3FE21E0D5F8E405006948B14FF4897026
:10445000405D032804D1D5F8E40501692846884762
:104460002846FFF74EFF0FE0FFE7D5F8E405806927
:1044700050B14FF48970405D032805D1D5F8E405AB
:104480003146826928469047002070BD01460020D1
:104490007047000070B504460D46E888012804D036
:1044A00029462046FFF7DEFE1AE04FF48970005DD2
:1044B000022802D003280DD105E001220949204637
:1044C000FFF708FF0BE0012204F588712046FFF793
:1044D00001FF04E029462046FFF7C4FE00BF00BFED
:1044E00070BD000014010020F8B504460E46708827
:1044F000001208286CD2DFE800F06B0416226B6B08
:104500006166A078D4F8EC150A68694690470546BC
:10451000F088402804D04FF48970005D012801D153
:104520000820009059E0A078D4F8E4158A6A69461A
:104530009047054602216970C4F8F0554DE0B07807
:10454000062834D2DFE800F0030B131B232BA078DE
:10455000D4F8EC154A686946904705462CE0A078E7
:10456000D4F8EC158A6869469047054624E0A0789F
:10457000D4F8EC15CA686946904705461CE0A07857
:10458000D4F8EC150A6969469047054614E0A0780E
:10459000D4F8EC154A696946904705460CE0A078C6
:1045A000D4F8EC158A6969469047054604E031461F
:1045B0002046FFF757FEF8BD00BF0EE0314620460B
:1045C000FFF750FEF7E731462046FFF74BFEF2E7D4
:1045D00031462046FFF746FEEDE700BFBDF800007C
:1045E00088B1F08878B1F088BDF80010884202DD0B
:1045F000BDF8000000E0F0880090BDF800202946DA
:104600002046FFF767FE00BFD5E70146002002E025
:10461000421CD0B2491C0A78002AF9D17047000028
:1046200070B504460D464FF48970005D022802D033
:10463000032813D100E000BF01200C4908604FF4AB
:104640008C70005920B10846006840F002000860F4
:10465000022206492046FFF73DFE04E02946204697
:10466000FFF700FE00BF00BF70BD00001801002072
:104670002DE9F04104460D4617460026FCB12046C0
:10468000FFF7C3FF022101EB400038803A78304643
:10469000711CCEB22A5403223046711CCEB22A5469
:1046A0000AE014F8012B3046711CCEB22A540022C5
:1046B0003046711CCEB22A5420780028F1D1BDE8D2
:1046C000F0812DE9F04104460F4615461E46DDF8FF
:1046D0001880204600F0A6FC2046FFF7D7FEC4F85D
:1046E000E465C4F8E885C4F8EC5539462046FDF782
:1046F00087FED4F8E81508688047204600F080FC63
:10470000BDE8F08110B50446D4F8E405016A2046FE
:104710008847002010BD10B50446D4F8E405416A6E
:1047200020468847002010BD7CB505460024284659
:1047300001F064FA002865D0284601F06AFA019079
:10474000019808B900207CBD0198C0F3C04018B1A1
:104750002846FDF75DFC04430198C0F3804018B182
:104760002846FDF7B3FB04430198C0F3400050B165
:1047700000200090009820F00200801C009000981B
:10478000E968486100BF0198C00F18B12846FDF7DD
:10479000BFFC04430198C0F3C02018B12846FDF7C0
:1047A00059FD04430198C0F3C00018B12846FDF735
:1047B0003BFD04430198C0F3001018B12846FDF7F3
:1047C000DBFC04430198C0F3003018B12846FDF724
:1047D00095FD04430198C0F3403018B12846FDF719
:1047E00042FB04430198C0F3005018B12846FDF77E
:1047F00055FE04430198C0F3405018B12846FDF718
:1048000063FE044320469EE790F8CC250A7090F89A
:10481000CD254A7090F8CE3590F8CF2503EB0222D3
:104820004A8090F8D03590F8D12503EB02228A8097
:1048300090F8D23590F8D32503EB0222CA80CB88BA
:104840004FF4A0721350012340F211121354704719
:1048500010B504460023402219462046FDF74DFAC4
:104860000023402280212046FDF747FA01214FF422
:1048700089700155A078D4F8E82551688847002050
:1048800010BD10B50446D4F8E8150869804740F219
:104890001310015D401E015503210155002010BD7C
:1048A0000146034802680869426000207047000022
:1048B000DC00002010B50446D4F8E405C06920B13E
:1048C000D4F8E405C16920468847002010BD70B5C2
:1048D00004460D46A88818BBE88808BBA87800F0F5
:1048E0007F064FF48970005D032804D129462046D5
:1048F000FFF7B8FC18E04FF48A70065531462046A1
:10490000FDF758FA2046FFF7FCFC26B102214FF4D0
:104910008970015508E001214FF48970015503E0C9
:1049200029462046FFF79EFC70BD70B504460D4633
:10493000D4F8E4052946026820469047D4F8E815E3
:1049400088688047002070BD70B504460D46A87881
:104950003049087008460078012804DD29462046C1
:10496000FFF780FC55E04FF48970005D022802D00B
:10497000032848D117E02748007880B125480078FF
:1049800084F8100103214FF4897001552148017802
:104990002046FFF7CAFF2046FFF7B3FC02E020469F
:1049A000FFF7AFFC34E01B48007880B902214FF4D8
:1049B000897001551748007884F81001154801786E
:1049C0002046FFF702FC2046FFF79BFC1AE094F814
:1049D000100110490978884211D094F8101120462E
:1049E000FFF7F3FB0B48007884F8100109480178C1
:1049F0002046FFF79AFF2046FFF783FC02E020469F
:104A0000FFF77FFC04E029462046FFF72BFC00BFA0
:104A100000BF70BD1C010020F8B504460D460026FD
:104A2000688801280DD101214FF48C700151D4F810
:104A3000E40529468268204690472046FFF761FC3E
:104A400039E06888022836D12879A0BB20694068FF
:104A50000090A8880612062E22D2DFE806F0210375
:104A6000090F151B009820F070001030009017E01F
:104A7000009820F070002030009011E0009820F0A5
:104A80007000303000900BE0009820F07000403053
:104A9000009005E0009820F070005030009000BFBA
:104AA00000BF05480099016001214FF48B7001554A
:104AB0002046FFF726FCF8BDDC0000201CB50446AC
:104AC00069462046FFF7A0FE9DF8000000F01F0099
:104AD00020B1012807D002280FD109E069462046FD
:104AE00000F016F811E06946204600F0F9F80CE0F5
:104AF0006946204600F046F807E09DF8000000F007
:104B000080012046FDF764F900BF00BF00201CBDF6
:104B100070B505460C46002660780A2829D2DFE8E1
:104B200000F01923281E280A0528140F21462846BC
:104B3000FFF7DAFC22E021462846FFF7C8FE1DE019
:104B400021462846FFF700FF18E021462846FFF7D8
:104B5000A1FC13E021462846FFF762FD0EE0214646
:104B60002846FFF759FF09E021462846FFF738FBA2
:104B700004E021462846FFF775FB00BF00BF304622
:104B800070BD00002DE9F04105460E46002734793E
:104B90007078002857D001282BD0032875D14FF406
:104BA0008970405D022802D003281BD107E02CB198
:104BB000802C03D021462846FDF70AF917E07088BB
:104BC00030B92CB1802C03D021462846FDF700F9DE
:104BD000D5F8E40531468268284690472846FFF715
:104BE00090FB04E031462846FFF73CFB00BF00BFC6
:104BF00070E04FF48970405D022802D003281BD179
:104C000007E02CB1802C03D021462846FDF7E0F8C0
:104C100017E0708878B95CB1802C09D0214628460D
:104C2000FDF747F8D5F8E4053146826828469047F5
:104C30002846FFF766FB04E031462846FFF712FBE3
:104C400000BF00BF46E04FF48970405D022802D0EB
:104C5000032837D107E02CB1802C03D02146284609
:104C6000FDF7B6F833E004F08000802812D104F09C
:104C70007F0000EB800105F58E7000EBC1008078AD
:104C800020B101201549086016E022E000201349F8
:104C9000086011E004F0800070B904EB840105F5B0
:104CA0005D7000EBC100807818B101200B490860ED
:104CB00002E0002009490860022208492846FFF75F
:104CC00009FB04E031462846FFF7CCFA00BF00BFDD
:104CD00000E000BF00BF3846BDE8F08110010020B1
:104CE00070B504460D4600264FF48970005D032818
:104CF00014D1287901280CDCD4F8E405294682680F
:104D000020469047E88840B93EB92046FFF7F9FAB7
:104D100003E029462046FFF7A5FA04E0294620468D
:104D2000FFF7A0FA00BF00BF304670BD10B50446C3
:104D30004FF48970015D401C01550421401E01554E
:104D4000D4F8E815C8688047002010BD70B5054646
:104D50000C462DB92246064906A0FFF789FC04E05F
:104D60002246034903A0FFF783FC014870BD000001
:104D700040480120415544494F20436F6E666967A2
:104D80000000000010B501200249087002A0FCF7E5
:104D9000B7FB10BD3C0200204D534320496E7465A3
:104DA000726661636520737461727465642E0D0AA6
:104DB0000000000010B502A0FCF7A2FB10BD00002F
:104DC0005553422044657669636520436F6E6E6576
:104DD000637465642E0D0A000246122008800148A3
:104DE000704700001C02002010B502A0FCF788FBF1
:104DF00010BD000055534220446576696365204428
:104E00006973636F6E6E65637465642E0D0A0000CE
:104E100010B5044614B1012C08D103E006A0FCF73C
:104E20006FFB07E00DA0FCF76BFB03E014A0FCF7A1
:104E300067FB00BF00BF10BD555342204465766933
:104E40006365204C6962726172792076312E312E51
:104E50003020205B48535D0D0A000000555342206E
:104E6000446576696365204C696272617279207667
:104E7000312E312E3020205B46535D0D0A0000009C
:104E800055534220446576696365204C69627261BE
:104E900072792076312E312E3020205B3F3F5D0D20
:104EA0000A00000010B502A0FCF72AFB10BD0000AC
:104EB00044657669636520526573756D65640D0A96
:104EC0000000000010B500200249087002A0FCF7A5
:104ED00017FB10BD3C0200204465766963652049DC
:104EE0006E2073757370656E64206D6F64652E0D32
:104EF0000A0000007047000070B505460C462DB949
:104F00002246064906A0FFF7B3FB04E02246034908
:104F100003A0FFF7ADFB014870BD00004048012031
:104F2000415544494F20496E74657266616365005E
:104F30000246042008800148704700003802002023
:104F400070B505460C462246024903A0FFF790FBC8
:104F5000004870BD4048012053544D6963726F652D
:104F60006C656374726F6E696373000070B505469B
:104F70000C462DB92246064906A0FFF779FB04E04E
:104F80002246034903A0FFF773FB014870BD0000F0
:104F90004048012053544D33324634303720555366
:104FA0004220415544494F0070B505460C462DB985
:104FB0002246064906A0FFF75BFB04E022460349B0
:104FC00007A0FFF755FB014870BD000040480120D5
:104FD0003030303030303030303334460000000074
:104FE0003030303030303030303334450000000065
:104FF00002466D20088001487047000068010020CB
:1050000038B5044643208DF8000000208DF80100DB
:1050100003208DF8020001208DF803006846FEF79A
:1050200083FC38BD1CB5044601210846FEF7CEFCC2
:1050300001218020FEF7DAFC4FF4C05000900220DE
:105040008DF8040000208DF8060003208DF805007F
:1050500000208DF8070069460648FDF72FFE0A225A
:105060000B210448FDF772FE0A220C210148FDF7CE
:105070006DFE1CBD0000024010B50446A0B201F058
:10508000ABF810BD10B50446204601F0C1F810BDC4
:105090003EB5044600250020029001900090207A41
:1050A00001283DD1E068806B0190019820F48030A8
:1050B0000190607A28B1019820F4801000F58010EA
:1050C00001900198E168886300200290E068C06860
:1050D0000290029820F040000290029820F4800094
:1050E0000290029820F400300290029820F40020F0
:1050F00002900298E168C860204600F061F9E0780B
:10510000012843D1009820F01E000A30009000983A
:1051100020F02000203000900098E168886035E0A1
:10512000E068C0680290029820F040004030029091
:105130000298E168C860204600F042F90020019022
:10514000019820F4803000F580300190019820F41F
:10515000802000F580200190019820F4002000F5C7
:1051600000200190019820F4001000F5001001903B
:10517000607A28B1019820F4801000F58010019029
:105180000198E16888631420FFF776FFE078012832
:105190000FD1E06880680090009820F01E000A306F
:1051A0000090009820F02000203000900098E168E6
:1051B000886028463EBD70B588B0044600260020B1
:1051C000079006900590049003900021D4F80C01FC
:1051D0000160206900680690069820F4C05006908F
:1051E000069920690160E07A01283DD1032120461B
:1051F00000F0F8FC4FF48070E1684862059880B2D6
:1052000000F58000059005986FF30F0000F58070A1
:1052100005900598E1688862059800EB10410498B4
:1052200061F30F000490049880B204900498E16840
:10523000C1F80401049800EB104161F30F000490E1
:10524000049880B204900499E068C0F808110498AA
:1052500000EB104161F30F000490049880B20490B9
:105260000499E068C0F80C111021204600F070FC91
:10527000204600F047FC002120690161206941615E
:10528000491E2069816100212069C16100252CE04F
:1052900004F1180050F82500006807900798C00F27
:1052A00070B100200790079820F0804000F1804006
:1052B0000790079820F0006000F10060079001E07F
:1052C0000020079004F1180050F8250007990160AC
:1052D000002104F1180050F825000161FF2104F1BC
:1052E000180050F8250081606D1C6078A842CFD866
:1052F00000252CE004F1540050F8250000680190CE
:105300000198C00F70B100200190019820F08040FA
:1053100000F180400190019820F0006000F10060F1
:10532000019001E00020019004F1540050F82500A4
:1053300001990160002104F1540050F82500016139
:10534000FF2104F1540050F8250081606D1C607845
:10535000A842CFD800200390039820F4807000F575
:10536000807003902069006903998843084321698C
:105370000861E07801281DD100200290029820F0F9
:105380000100401C0290029820F00200801C029054
:105390004021029861F38A000290029820F4803044
:1053A00000F580300290029861F359400290029912
:1053B00020690163204600F047FB304608B070BD0D
:1053C000F8B50446002600250020009000BF032009
:1053D000FFF758FEE06800690090681C0546134915
:1053E000884201D90020F8BD0098C00F0028EED0F7
:1053F0000025009820F00100401C00900098E16812
:10540000086100BFE06800690090681C0546074914
:10541000884200D904E0009800F001000028F1D192
:1054200000BF0320FFF72EFE3046DCE7400D0300EF
:1054300008B50146002000220092009A22F00102E5
:10544000521C0092CA689268009B9A43CB689A608B
:1054500008BD0EB501460020002200920A6992683C
:1054600002928A6912680192029AC2F3410232B131
:10547000012A05D0022A09D0032A0DD101E000BF7C
:1054800000BF019A6FF30A02019205E0019A6FF3DF
:105490000A02D21C019200BF00BF019B8A691360FF
:1054A000009A22F4807202F5807200920A695268B2
:1054B000009B9A431A430B695A600EBDFEB5024623
:1054C000002000240025029500954D78012D52D131
:1054D00093691D6802951D6900954D6955B9009D38
:1054E00025F07F050095009D25F4C01505F50025E4
:1054F000009516E08E684D69B54207D98D684D61FB
:105500000E7A009D66F30605009504E00E7D009D71
:1055100066F306050095009D25F4C01505F50025E8
:105520000095009D1D61D578012D06D10F7802F1FF
:10553000180555F827500E696E61029D25F08065AB
:1055400005F180650295029D25F0004505F10045B5
:105550000295029D1D60D578002D59D14D69002D11
:1055600056D00E780125B5402C4315696D6B254347
:10557000166975634CE00E7802F1540555F8265013
:105580002D6802950E7802F1540555F826502D69C4
:1055900000954D695DB90E7A009D66F3060500958C
:1055A000009D25F4C01505F5002500950CE08D68DB
:1055B0004D610E7A009D66F306050095009D25F469
:1055C000C01505F5002500950F7802F1540555F832
:1055D0002750009E2E61D578012D06D10F7802F15B
:1055E000540555F827500E696E61029D25F08065BF
:1055F00005F180650295029D25F0004505F1004505
:1056000002950F7802F1540555F82750029E2E603E
:10561000FEBD0EB500210191019921F04041A1F19B
:1056200080410191019921F4C01101F500210191FE
:10563000019921F07F0118310191019A416D0A61B0
:10564000C178012915D10021009100F2CC51426DA1
:105650005161416D09680091009921F0004101F10B
:10566000004100914FF080210091009A416D0A6045
:1056700000BF0EBD3CB502460020002401940094FA
:105680004C78012C0CD10D7802F1180454F8253017
:105690000D780124AC40009D64F30F0500950BE0EC
:1056A0000D7802F1540454F825300D780124AC40F3
:1056B000009D64F31F4500951C680194019CC4F390
:1056C000C034E4B90D89019C65F30A040194CD78D6
:1056D000019C65F3934401948D79019C65F3995481
:1056E0000194019C24F0805404F180540194019CA5
:1056F00024F4004404F500440194019C1C601469E6
:10570000E469009D2C431569EC613CBD38B5034646
:105710000020002400944C78012C05D10D7803F171
:10572000180454F8252004E00D7803F1540454F8CB
:10573000252014680094009C24F400140094CC7874
:10574000032C02D0CC78022C05D1009C24F080548C
:1057500004F180540094009C146038BD3CB50246AE
:1057600000200024019400944C78012C0CD10D7879
:1057700002F1180454F825300D780124AC40009D46
:1057800064F30F0500950BE00D7802F1540454F812
:1057900025300D780124AC40009D64F31F45009531
:1057A000019C24F400440194019C1C601469E46988
:1057B000009DAC431569EC613CBD38B503460A4613
:1057C0000020002400945478012C18D1157803F19E
:1057D000180454F825100C680094009CE40F2CB1B8
:1057E000009C24F0804404F180440094009C24F444
:1057F000001404F500140094009C0C600EE0157871
:1058000003F1540454F825100C680094009C24F40F
:10581000001404F500140094009C0C6038BDFEB523
:1058200005460C4600260027002002900190607873
:1058300001287ED1217805F1180050F82100006878
:105840000290217805F1180050F8210000690190BC
:10585000606948B901986FF3120001900121019825
:1058600061F3DC40019017E06169019861F3120077
:1058700001906069401EA1680844B0FBF1F10198F5
:1058800061F3DC400190E078012805D1019820F017
:10589000C04000F100500190227805F1180050F846
:1058A000220001990161E878012807D1227805F1E9
:1058B000180050F82200216941610DE0E0780128CC
:1058C0000AD0606940B12178012000FA01F7286907
:1058D000406B384329694863E078012813D128696F
:1058E000806800900098C0F3002030B9029820F042
:1058F000005000F10050029005E0029820F0805026
:1059000000F180500290029820F0806000F18060E9
:105910000290029820F0004000F1004002902278AE
:1059200005F1180050F8220002990160E078012882
:1059300000E008E06CD1A08A83B222782846E168B2
:1059400000F02DFA64E0217805F1540050F82100B0
:1059500000680290217805F1540050F82100006998
:105960000190606950B9A168019861F3120001903B
:105970000121019861F3DC40019013E0A068401E12
:1059800061690844A168B0FBF1F1019861F3DC4062
:1059900001900198C0F3C940A1684843019960F3A0
:1059A00012010191227805F1540050F8220001996A
:1059B0000161E878012806D1227805F1540050F8F9
:1059C000220021694161E07801280ED1607930B16F
:1059D000029820F0005000F10050029005E002987B
:1059E00020F0805000F180500290029820F08060FA
:1059F00000F180600290029820F0004000F1004029
:105A00000290227805F1540050F8220002990160BA
:105A10003046FEBD08B500210091491EC2685160A4
:105A20006FF08041C2685161009921F0004101F19D
:105A300000410091009921F4006101F5006100919D
:105A40000099C268916108BD38B504460025002060
:105A50000090E16888616FF08040E168486120460D
:105A6000FFF7D8FFE07820B9009820F01000103040
:105A70000090009820F4006000F50060009000980D
:105A800020F4805000F580500090009820F40050E1
:105A900000F500500090009820F4802000F5802050
:105AA0000090009820F4002000F50020009000985D
:105AB00020F0080008300090009820F4801000F5D5
:105AC00080100090009820F4001000F50010009065
:105AD000E0688069009988430843E1688861284646
